:100000000C9434000C9451000C9451000C94510049
:100010000C9451000C9451000C9451000C9451001C
:100020000C9451000C9451000C9451000C9451000C
:100030000C9451000C9451000C9451000C945100FC
:100040000C9451000C9451000C9451000C945100EC
:100050000C9451000C9451000C9451000C945100DC
:100060000C9451000C94510011241FBECFEFD8E026
:10007000DEBFCDBF11E0A0E0B1E0E8E1F2E002C0F8
:1000800005900D92AC33B107D9F721E0ACE3B1E0B4
:1000900001C01D92A834B207E1F70E94C7000C947A
:1000A0000A010C940000CF93C82F8A3051F0809140
:1000B000C00085FFFCCFC093C60080E090E0CF91E8
:1000C000089560E070E08DE00E945300F0CF109240
:1000D000C50089E18093C4001092C00088E180933C
:1000E000C10086E08093C20080E091E090934501DA
:1000F00080934401089584B5886084BD84B58E7F63
:1001000084BD84B58D7F84BD85B5856085BD16BCF5
:100110008FEF87BD08958091C00087FFFCCF80914D
:10012000C60008950F931F93CF93DF93FC01C08106
:10013000CC2389F08C01D0E0CA3091F09091C000BE
:1001400095FFFCCFC093C600DF5FF801ED0FF11DF6
:10015000C081C111F1CFDF91CF911F910F9108950F
:1001600060E070E08DE00E945300E8CF1C9B03C06C
:100170002B9A81E008952B98811101C0089581E0A8
:1001800080933E0182E291E00E94920008950E94D5
:1001900067000E947B008FEF84B9249880913C0116
:1001A000C1E01C9B15C0C0933F01811119C086B5E9
:1001B00081112DC080913F01882349F180913E013A
:1001C000882329F1C0933C0110923F011C99EBCF89
:1001D00090913F01992349F3C0933E01882339F35D
:1001E0008EE091E00E94920080913E018823F9F216
:1001F00080913C018823D9F287E191E00E9492002E
:1002000010923C0110923E0186B5882399F28091AC
:080210003C01C7CFF894FFCFB9
:10021800000000020000000053000000000070759C
:10022800736865640D0A0072656C65617365640DB9
:100238000A00627574746F6E2072656C656173650F
:0C0248006420697320747275650D0A0053
:00000001FF
